:100000000C949F000C94630F0C94900F0C94C700F9
:100010000C94C7000C94C7000C94C7000C94C70044
:100020000C94C7000C94C7000C94C7000C94C70034
:100030000C94C7000C94C7000C94C7000C94C70024
:100040000C947E110C94C7000C94F30F0C94C70011
:100050000C94C7000C94C7000C94C7000C94C70004
:100060000C94C7000C94C7004D53472049443A20D4
:100070003078253034783A20636F6D6D616E643D61
:1000800062757A7A65722E2564004D534720494483
:100090003A203078253034783A20636F6D6D616E88
:1000A000643D69722E25642E25642E256C782E25DC
:1000B0006C78004D53472049443A2030782530343D
:1000C000783A202F736F636B65742F25642F256436
:1000D0002F25730000000000240027002A000000E4
:1000E0000000250028002B0000000000230026004F
:1000F00029000404040404040404020202020202AB
:1001000003030303030301020408102040800102DB
:10011000040810200102040810200000000700025B
:1001200001000003040600000000000000006364FA
:10013000696E6F70737578585B00AE0844111124B6
:100140001FBECFEFD8E0DEBFCDBF15E0A0E0B1E02D
:10015000E6E6FFE202C005900D92A031B107D9F7A3
:1001600017E0A0E1B5E001C01D92A437B107E1F7A7
:1001700011E0CEE3D1E004C02297FE010E94FE13FD
:10018000CA33D107C9F70E94790E0C94B1170C94A9
:1001900000001F93CF93DF9310916906C8E5D7E065
:1001A000CE0160E071E00E944612612F70E06F7135
:1001B0007070CE014AE050E00E942013CE016AE048
:1001C00071E00E9446124091AF065091B0066091D6
:1001D000B1067091B206CE012AE030E00E94EA1228
:1001E000CE0162E171E00E944612DF91CF911F9132
:1001F0000895CF93DF93AFE1B5E0EBE6F6E088E05A
:1002000001900D928150E1F780911B0590911C05A2
:10021000A0911D05B0911E050097A105B10509F437
:100220004AC0C091AF06D091B006C81BD90BC230EE
:10023000D10594F188E597E06BE171E00E944612E8
:10024000219788E597E0BE014AE050E00E94201324
:1002500088E597E063E371E00E94461288E597E045
:100260000E943413CE01AA2797FDA095BA2F2091A2
:100270003305309134054091350550913605820F94
:10028000931FA41FB51F8093330590933405A0934B
:100290003505B09336050FC0D7FF0DC088E597E050
:1002A0006EE371E00E94461288E597E0BE014AE0E5
:1002B00050E00E9466138091AF069091B006A09125
:1002C000B106B091B20680931B0590931C05A093D4
:1002D0001D05B0931E0580911F0590912005A091EA
:1002E0002105B09122052091620630916306EC0150
:1002F000C21BD30B8093620690936306A09364069F
:10030000B09365060E94C90088E597E068E771E050
:100310000E944612409123055091240560912505C5
:10032000709126054F5F5F4F6F4F7F4F88E597E0D5
:100330002AE030E00E94D31288E597E06DE971E091
:100340000E94461240911F055091200560912105A1
:100350007091220588E597E02AE030E00E94D312F0
:1003600088E597E068EA71E00E94461288E597E028
:10037000BE014AE050E00E946613E0912305F0912F
:100380002405EE0FFF1FEE0FFF1FE95DFA4F80817E
:100390009181A281B3810196A11DB11D80839183BA
:1003A000A283B3838091370590913805A0913905D8
:1003B000B0913A050196A11DB11D80933705909328
:1003C0003805A0933905B0933A05DF91CF91089590
:1003D000CF93DF9388E597E061EB71E00E944612CE
:1003E000C7E2D5E088E597E060E240E050E00E9497
:1003F0002A13488159816A817B8188E597E02AE048
:1004000030E00E94D312199219921992199285E044
:10041000CB33D80739F788E597E00E943413DF9192
:10042000CF9108950F931F93CF93DF93ABE3B5E084
:10043000EBE6F6E086E001900D928150E1F7009145
:100440003D0510913E050E94C90088E597E060E2F5
:1004500040E050E00E942A1317FF0BC0CC27DD2795
:10046000C01BD10B88E597E068EC71E00E94461252
:1004700001C0E801CE0164E670E00E94AC13EC011B
:1004800088E597E04AE050E00E94201388E597E075
:100490006AEC71E00E944612CA30D10534F488E556
:1004A00097E06CEC71E00E94461288E597E0BE018F
:1004B0004AE050E00E94201388E597E06EEC71E07E
:1004C0000E94461260913F057091400588E597E0D3
:1004D0004AE050E00E94201388E597E062EE71E068
:1004E0000E94461260913B0570913C0588E597E0BB
:1004F0004AE050E00E94201388E597E00E94341300
:1005000088E597E06CEE71E00E94461217FF09C083
:10051000109501951F4F88E597E068EC71E00E9407
:100520004612C80164E670E00E94AC13EC0188E555
:1005300097E04AE050E00E94201388E597E06AECDB
:1005400071E00E944612CA30D10534F488E597E084
:100550006CEC71E00E94461288E597E0BE014AE02B
:1005600050E00E94201388E597E06BE372E00E9460
:100570005B13DF91CF911F910F9108950F931F93FC
:10058000CF93DF93A1E4B5E0EBE6F6E086E00190DF
:100590000D928150E1F760914505709146058827DD
:1005A00077FD8095982F25E832E040E050E00E94EA
:1005B000791324E630E040E050E00E94E113890125
:1005C00088E597E06DE372E00E9446128091450550
:1005D00090914605CBE9D0E0BE010E94AC1388E5BE
:1005E00097E04AE050E00E94201388E597E06AEC2B
:1005F00071E00E9446128091450590914605BE012A
:100600000E94AC13BC0188E597E04AE050E00E94EC
:10061000201388E597E068E572E00E945B138FE0A5
:10062000003A18076CF588E597E06AE572E00E94E9
:1006300046128091450590914605BE010E94AC137B
:1006400088E597E04AE050E00E94201388E597E0B3
:100650006AEC71E00E944612809145059091460532
:10066000BE010E94AC13BC0188E597E04AE050E06F
:100670000E94201388E597E068E572E00E945B1312
:1006800080914405813071F40E94C90088E597E0AB
:100690006AE772E00E945B1388E597E065E872E024
:1006A0000E945B13DF91CF911F910F910895AFE4EA
:1006B000B5E0EBE6F6E088E001900D928150E1F7BD
:1006C00088E597E06AEC72E00E94461240915E066F
:1006D00050915F06609160067091610688E597E031
:1006E00020E130E00E94D31288E597E065ED72E0EA
:1006F0000E9446120E94C90088E597E068ED72E00A
:100700000E944612609151057091520588E597E06C
:100710004AE050E00E94201388E597E06FEE72E017
:100720000E944612609153057091540588E597E048
:100730004AE050E00E94201388E597E066EF72E0FF
:100740000E944612609155057091560588E597E024
:100750004AE050E00E94661388E597E060E073E0AD
:100760000E944612609151057091520588E597E00C
:100770004AE050E00E94201388E597E063E373E0CD
:100780000E944612609153057091540588E597E0E8
:100790004AE050E00E94201388E597E065E373E0AB
:1007A0000E9446128091550590915605009729F0B8
:1007B00088E597E064E473E004C088E597E068E4C6
:1007C00073E00E945B130895CF93DF9380916B06D3
:1007D00090916C06A0916D06B0916E0680935705BE
:1007E00090935805A0935905B0935A050E94C900EB
:1007F000C8E5D7E0CE016FE873E00E944612609131
:10080000570570915805CE014AE050E00E94201330
:10081000CE016BE973E00E94461260915905709118
:100820005A05CE014AE050E00E946613CE0166EA06
:1008300073E00E9446126091570570915805CE01F1
:100840004AE050E00E942013CE0165E373E00E946D
:1008500046126091590570915A05CE014AE050E068
:100860000E942013CE016BE372E00E945B13DF91C4
:10087000CF9108951F93CF93DF9310916906C8E538
:10088000D7E0CE0169ED73E00E944612612F70E05F
:100890006F717070CE014AE050E00E942013CE01CB
:1008A0006CEE73E00E94461260916906CE0142E050
:1008B00050E00E94E212CE0166EF73E00E94461201
:1008C00060916906CE0140E150E00E94E212CE0143
:1008D0006BEF73E00E944612CE016AE071E00E9465
:1008E00046124091AF065091B0066091B1067091EA
:1008F000B206CE012AE030E00E94EA12CE016DEF8E
:1009000073E00E94461260916A06CE014AE050E010
:100910000E944B13DF91CF911F9108950E94C70C45
:10092000882309F45AC08091660690916706009763
:1009300009F053C08091690690E08F719070853006
:10094000910509F07FC020916A06283009F07EC029
:100950000E94F9002BC020916A06263009F07AC067
:100960000E94120223C020916A06263009F076C048
:1009700080E195E060E070E00E94B3080E94BE0252
:1009800015C020916A06283009F06CC005C080911E
:100990006A06883009F06AC00E94570307C0809138
:1009A0006A06843009F062C00E94E40380916906FF
:1009B00085FF13C08091690687FD0FC0809169068D
:1009C00086FD05C0809169068F71806C01C080E84A
:1009D00060E070E040E00E94870D80E195E060E318
:1009E00078E00E94CE08882319F081E080931605F4
:1009F000809116058823E9F10E943F0D8823C9F1F3
:100A00001092160580915B058093430587E061E4B1
:100A100075E046E00E94870D10925B0580911705F6
:100A200090911805A0911905B0911A050196A11D84
:100A3000B11D8093170590931805A0931905B093E5
:100A40001A0508958630910509F485CF8730910500
:100A500009F489CF8830910509F493CF813091054D
:100A600009F495CF8330910509F499CF0E943A0497
:100A70009DCF08958F929F92AF92BF92CF92DF92B7
:100A8000EF92FF920F931F93DF93CF930F92CDB707
:100A9000DEB78C017B015A0188E0EFE4F5E0DF016D
:100AA0001D928A95E9F788E597E068E074E00E9476
:100AB000461288E597E0B8014AE050E00E94201312
:100AC00088E597E06FEE72E00E94461288E597E0B5
:100AD000B7014AE050E00E94201388E597E066EFF6
:100AE00072E00E94461288E597E0B5014AE050E0C6
:100AF0000E94661383E590E0909348058093470534
:100B000010934A0500934905F0924C05E0924B057D
:100B1000B0924E05A0924D052AE0822E912C88E5D8
:100B200097E0B4014AE050E00E94661308948108FF
:100B30009108BFEF8B16BFEF9B0619F44BC00E94C4
:100B40008E040E943F0D8823D1F380E267E475E0B4
:100B500048E00E94870D81E00E94960D88E597E0AD
:100B600067E274E00E945B1399E8C92E93E1D92EE5
:100B70000E948E040894C108D108C114D104C1F7A1
:100B8000809151059091520580179107B1F48091A1
:100B90005305909154058E159F0579F48091550564
:100BA000909156058A159B0541F488E597E069E226
:100BB00074E00E945B1320E001C021E088E597E02B
:100BC0006AEC71E029830E945B132981222309F0DA
:100BD000A6CF06C088E597E062E374E00E945B134D
:100BE0000F90CF91DF911F910F91FF90EF90DF90C9
:100BF000CF90BF90AF909F908F900895EF92FF920B
:100C00000F931F93CF93DF938C017B01C8E5D7E04F
:100C1000CE016AEC72E00E94461240915E0650914D
:100C20005F066091600670916106CE0120E130E0C0
:100C30000E94D312CE016AE374E00E944612CE01F4
:100C40006EE474E00E944612CE01B8014AE050E022
:100C50000E942013CE016DEF73E00E944612CE0178
:100C6000B7014AE050E00E942013CE0167E574E02E
:100C70000E944612CE0140E050E0BA0120E130E08F
:100C80000E94D312CE0144E453E362E271E120E119
:100C900030E00E94D312CE016BE372E00E945B133E
:100CA000DF91CF911F910F91FF90EF9008952F92B8
:100CB0003F924F925F926F927F928F929F92AF92EC
:100CC000BF92CF92DF92EF92FF920F931F93DF9329
:100CD000CF93CDB7DEB7E0970FB6F894DEBF0FBE67
:100CE000CDBF7CE5C72E75E0D72E63EB662E60E0A6
:100CF000762E5EE5852E56E0952E2E010894411C39
:100D0000511C43E0242E312C2C0E3D1E31E1A32E2C
:100D1000B12CAC0EBD1E80C180915C0690915D0629
:100D20008F3F91050CF06DC188E597E00E9420117E
:100D3000809304058A3019F08D3009F053C12DB726
:100D40003EB72C5030400FB6F8943EBF0FBE2DBFBB
:100D5000EDB7FEB73196ADB7BEB71296DC92CE9224
:100D6000119773826282958284825782468231868D
:100D70002086B386A2860E941914EDB7FEB73C9672
:100D80000FB6F894FEBF0FBEEDBF8430910509F099
:100D90008EC0C50160E674E046E050E00E940B148E
:100DA000009709F041C009811A81EB80FC8088E03E
:100DB000AFE4B5E01D928A95E9F788E597E066E62D
:100DC00074E00E94461288E597E0B8014AE050E0DE
:100DD0000E94201388E597E06FEE72E00E944612B1
:100DE00088E597E0B7014AE050E00E94661383E58A
:100DF00090E0909348058093470510934A0500932F
:100E00004905F0924C05E0924B058FE390E09093FA
:100E10004E0580934D050E948E0480E267E475E0E4
:100E200048E00E94870DD5C0C50163E874E043E047
:100E300050E00E940B14009739F46B817C8189810A
:100E40009A8140E050E00FC0C50167E874E042E0DD
:100E500050E00E940B14009749F46B817C818981DA
:100E60009A8141E050E00E943A05B3C088E597E0DE
:100E70006AEC72E00E94461240915E0650915F0655
:100E8000609160067091610688E597E020E130E0AE
:100E90000E94D31288E597E065ED72E00E94461249
:100EA0000E94C90088E597E06AE874E090C0EDB759
:100EB000FEB73E970FB6F894FEBF0FBEEDBF31965A
:100EC000ADB7BEB71296DC92CE9211972AE830E009
:100ED000338322839582848285E090E08C0F9D1F6E
:100EE00097838683A7E0B0E0AC0FBD1FB187A087D2
:100EF00029E030E02C0F3D1F338722878DE090E002
:100F00008C0F9D1F958784870E941914ADB7BEB7BB
:100F10001E960FB6F894BEBF0FBEADBF85309105CB
:100F200079F46F81788529853A854B855C85ED84D8
:100F3000FE840F8518898D819E810E94FE0549C01F
:100F4000EDB7FEB738970FB6F894FEBF0FBEEDBFF2
:100F50003196ADB7BEB71296DC92CE92119728E6C5
:100F600030E03383228395828482178216820E9426
:100F70001914ADB7BEB718960FB6F894BEBF0FBE22
:100F8000ADBF8230910551F488E597E06AE974E0DD
:100F90000E945B1381E080935B051BC088E597E0AE
:100FA0006EEA74E00E94461260915C0670915D06E4
:100FB00088E597E04AE050E00E94201388E597E03A
:100FC0006CEC74E00E94461288E597E0B6010E943E
:100FD0005B1380E091E0F6019C01119221503040BA
:100FE000E1F716C020915C0630915D06F901E45AE4
:100FF000FA4F80832F5F3F4F30935D0620935C064E
:101000000BC080E091E0D601FC011D923197E9F719
:1010100010925D0610925C0688E597E00E940A1126
:10102000882309F079CEE0960FB6F894DEBF0FBEA4
:10103000CDBFCF91DF911F910F91FF90EF90DF9087
:10104000CF90BF90AF909F908F907F906F905F9068
:101050004F903F902F900895EF92FF920F931F9320
:10106000DF93CF93CDB7DEB760970FB6F894DEBFAE
:101070000FBECDBFA8952FE088E190E00FB6F894A1
:10108000A895809360000FBE2093600088E597E0EC
:1010900040E051EE60E070E00E941B1088E597E0B0
:1010A00060ED74E00E945B138E010F5F1F4FC8015B
:1010B00060E470E040E150E00E94EF1688E597E0C0
:1010C0006DEF74E00E944612E1E1EE2EF12CEC0E81
:1010D000FD1EF80161918F0188E597E040E050E046
:1010E0000E94E21288E597E062E075E00E944612F5
:1010F0000E151F0571F788E597E00E94341389E00B
:1011000061E00E94800E81E062E04AE220E436EA7B
:101110000E94B20D80E490E00E94560E80E00E9492
:10112000530E60960FB6F894DEBF0FBECDBFCF91C1
:10113000DF911F910F91FF90EF90089583E195E06B
:1011400060E67AEE0E94CE08882311F00E94E80142
:101150000E9457060E948E04A895089510921205C9
:101160001092150508950F931F93CF93DF938C0171
:10117000EB0181E0209709F480E0F8018283882365
:1011800041F00E94C6112197C60FD71FF801D183E5
:10119000C083DF91CF911F910F910895EF92FF923D
:1011A0000F931F93CF93DF93EC017B018A818823F8
:1011B00061F0088119810E94C611061B170B8AEE87
:1011C0000136180740F0019501C000E0CE01B701DB
:1011D0000E94B30801C000E0802FDF91CF911F91E2
:1011E0000F91FF90EF9008959C012627622F629542
:1011F0006227062E669566956025062E6695602503
:101200006770022E232F669507946795302D262749
:101210000694679530252627C90108958EBD0DB423
:1012200007FEFDCF8EB50895EF92FF921F93CF93E7
:10123000DF93182F2A98892F0E940E09982F80E09B
:10124000EC01812F0E940E092A9A282F30E02C2BC6
:101250003D2BC901DF91CF911F91FF90EF90089531
:101260001F9380E090E00E9414098091CB068530A6
:10127000E9F580E090EB0E941409682F8091CF0679
:10128000882371F49091CC06992351F08091CF0678
:10129000E82FF0E0E859F94F90838F5F8093CF06F5
:1012A0008091CF06E82FF0E0E859F94F60838F5F17
:1012B0008093CF0680916606909167060E94F4089D
:1012C000909367068093660680916A062091CF0608
:1012D00090E0049630E0821793072CF08091CF06BF
:1012E000873408F457C08DE092E852C08091CB0655
:1012F00087FF1AC0E0916A068091CB06982F9F5F06
:101300009093CB06ED5FE80FF0E0E859F94F1081BC
:101310008091660690916706612F0E94F408909371
:1013200067068093660630C08091CB06982F9F5F3A
:101330009093CB06833019F184302CF4882399F0F4
:10134000813009F516C0893019F08A30E1F402C005
:101350001DE21AC01091680690916A068EEF891BF3
:101360008093CB0611C08091660690916706182F76
:101370000BC08091660690916706192F05C08DE01D
:1013800092E80E9414091AEA812F90E08050984454
:101390000E9414091F9108952F923F924F925F92DD
:1013A0006F927F928F929F92AF92BF92CF92DF9275
:1013B000EF92FF920F931F93DF93CF93CDB7DEB7DA
:1013C00029970FB6F894DEBF0FBECDBF882309F46E
:1013D0005EC1E0916A068091C5069091C606A09113
:1013E000C706B091C8060196A11DB11D8093C50620
:1013F0009093C606A093C706B093C806F0E0E559DF
:10140000F94F80839183A283B38380916A0680958C
:10141000837090916A06980F90936A06E0916A062D
:10142000F0E0E559F94F90819F739083E0916A064F
:10143000F0E0E559F94F90818295880F880F807C04
:10144000892B808380916A068F5F80936A068091E2
:101450006A068695869582300CF480C2682E7724C1
:1014600067FC70940894610871084301880C991C0A
:10147000880C991C0BE6202E06E0302E820C931C63
:10148000F40180819181A281B381AA24BB246501EA
:1014900019EB212E19E7312E17E3412E1EE9512EAB
:1014A000A20CB31CC41CD51CA6019501F2E05695F4
:1014B000479537952795FA95D1F7722F737060E0AD
:1014C00065C04E815F81440F551F440F551F415920
:1014D000594FFA01E080F180028113814E815F81D2
:1014E000440F551F440F551F4559594F5F834E8375
:1014F0002727E22FF0E0EE0FFF1FEE0FFF1FEB5448
:10150000F94F208131814281538182279327A4277B
:10151000B527A80197012A253B254C255D25820F7B
:10152000931FA41FB51FA8019701F3E05695479597
:1015300037952795FA95D1F722253325442555254A
:10154000E2E0EE0CFF1C001F111FEA95D1F7298085
:101550003A804B805C80E224F324042515252E0D6F
:101560003F1D401F511F82279327A427B527EE81D7
:10157000FF812081318142815381820F931FA41FFB
:10158000B51F80839183A283B3836F5F262E33249C
:101590003F822E82262F23701C012D01F4E0220CA5
:1015A000331C441C551CFA95D1F77C018D01E5E0F4
:1015B00016950795F794E794EA95D1F7E982FA82B0
:1015C0000B831C830E811F81061517050CF479CF40
:1015D000E0906B06F0906C0600916D0610916E061F
:1015E0002727E22FF0E0EE0FFF1FEE0FFF1FEB5457
:1015F000F94F208131814281538182279327A4278B
:10160000B527A60195012E253F2540275127820F9A
:10161000931FA41FB51FA801970163E05695479536
:10162000379527956A95D1F72225332544255525E9
:10163000F2E0EE0CFF1C001F111FFA95D1F7298074
:101640003A804B805C80E224F324042515252E0D7E
:101650003F1D401F511F82279327A427B527F40160
:101660002081318142815381820F931FA41FB51FB6
:1016700080839183A283B383F6E5AF16FAEDBF06AC
:10168000FCE4CF06F5EBDF0609F002CF67C18091DD
:10169000660690916706009709F060C180916A061E
:1016A0008695869582300CF410C120916B0630919E
:1016B0006C0640916D0650916E06682F772767FD86
:1016C0007095660F771F660F771F6959794F96E5FA
:1016D000A92E9AEDB92E9CE4C92E95EBD92E8150F6
:1016E0008D837F836E83D601C50102E0B695A795F1
:1016F000979587950A95D1F7782F73706D815FC0A4
:10170000862F90E0FC01EE0FFF1FEE0FFF1FE9593F
:10171000F94FE080F180028113819C01220F331F79
:10172000220F331F2559394F39872887E62FE37059
:10173000E727F0E0EE0FFF1FEE0FFF1FEB54F94F0E
:1017400080819181A281B3818E259F25A027B12719
:1017500029813A814B815C81820F931FA41FB51FA1
:10176000A8019701F4E0220F331F441F551FFA957B
:10177000D1F72625372548255925E5E01695079503
:10178000F794E794EA95D1F7E224F324042515258C
:101790002E0D3F1D401F511F82279327A427B527D9
:1017A000E885F9852081318142815381281B390BDD
:1017B0004A0B5B0B208331834283538361501901B1
:1017C0002A012A243B244C245D2429823A824B821C
:1017D0005C8239014A01B3E09694879477946794C8
:1017E000BA95D1F719012A01A2E0220C331C441C3E
:1017F000551CAA95D1F7662309F082CFAE81BF812F
:10180000ED90FD900D911C91D801C701F4E0880F77
:10181000991FAA1FBB1FFA95D1F786259725A825E2
:10182000B925A8019701E5E0569547953795279585
:10183000EA95D1F72225332544255525820F931F9C
:10184000A41FB51FE72FF0E0EE0FFF1FEE0FFF1FE5
:10185000EB54F94F20813181428153812E253F2560
:101860004027512729803A804B805C80220D331D10
:10187000441D551D82279327A427B52720916B0669
:1018800030916C0640916D0650916E06281B390B05
:101890004A0B5B0B20936B0630936C0640936D06EE
:1018A00050936E0667E4E62E66E8F62E68EC062F87
:1018B00061E6162FAE0CBF1CC01ED11EA114B104D0
:1018C000C104D10409F00FCF03C0882309F446C036
:1018D00080916A06815080936A06E0916A06F0E082
:1018E000E559F94F60816295669566956370E09160
:1018F0006A06F0E0E559F94F808190E0A0E0B0E0A1
:101900008F739070A070B0708093AF069093B00604
:10191000A093B106B093B20617C0BA2FA92F982F83
:10192000882720916A06215020936A06E0916A0672
:10193000F0E0E559F94F208130E040E050E0822BA3
:10194000932BA42BB52B6150662339F78093AF06F8
:101950009093B006A093B106B093B20629960FB645
:10196000F894DEBF0FBECDBFCF91DF911F910F91D5
:10197000FF90EF90DF90CF90BF90AF909F908F90AF
:101980007F906F905F904F903F902F90089580913F
:10199000CB06853009F040C080916A062091CF06C1
:1019A00090E0049630E08217930724F08091CF06F0
:1019B000873490F184E08093CB0680916A0683346B
:1019C00030F081E090E09093670680936606809106
:1019D000690686FF12C02091C90630E0C9018F71E7
:1019E00090708F31910549F08091690690E08227CF
:1019F00093278F719070009779F48091660690918B
:101A00006706009771F5E091B306F091B406309740
:101A100041F180E0099531C08091CB068430F9F422
:101A200010926A0680916A068093CF068FEF9FEF2F
:101A300090936706809366066091CC06662331F02A
:101A40000E94F408909367068093660685E0809371
:101A5000CB068DED92E80E94140980E0089580E0A5
:101A600008958FEF9FEFAFEFBFEF8093AF06909396
:101A7000B006A093B106B093B20681E008958091BC
:101A8000CB068530A9F48091CF06882389F40E9483
:101A90000E0980FD0FC08DE092E80E94140984E0D9
:101AA0008093CB068091CC068093680681E00895F0
:101AB00080E0089580E0089586FD05C0807E9091C5
:101AC000C9069F71890F80936906E091B306F09172
:101AD000B406309711F081E009958FEF9FEF909356
:101AE000670680936606809166069091670660910E
:101AF00068060E94F408909367068093660686E065
:101B00008093CB068DE392E80E94140908951F93F9
:101B1000182F40936A062BE636E0C90150E00E9478
:101B20000214812F0E945C0D1F91089516C0882316
:101B3000A1F093B7917F833021F0823021F42CE023
:101B400003C024E001C020E0922B93BF93B79160C3
:101B500093BF889593B79E7F93BF9091CB069430A7
:101B600031F708951F93162F8093C9064093CC0632
:101B70003093CE062093CD062A9A229A8AE061E01D
:101B80000E949E0E8AE061E00E94800E8BE061E080
:101B90000E94800E8CE060E00E94800E8DE061E08B
:101BA0000E94800E81E58CBD8DB581608DBD85E084
:101BB00060E00E94800E85E061E00E949E0E80E061
:101BC00090E00E94140985E092E80E94140980E0E8
:101BD00098EB02C080E090E00E94140985E00E942A
:101BE000EA0E0097B9F3812F90E024E0880F991F47
:101BF0002A95E1F7876C90680E9414098091CD06C0
:101C00009091CE060E94140986E096EC0E94140979
:101C100082EA94E90E9414098CEA92EC0E94140969
:101C20001091CC06112341F083E89AEC0E9414092C
:101C3000812F90E09E6C06C08BE89AEC0E941409FC
:101C40008DE29EEC0E94140983E894EC0E94140932
:101C500080E598E90E94140987E79CEC0E9414092A
:101C600080E090EE0E94140980E098EC0E94140934
:101C700089E490EC0E94140984E08093CB06809163
:101C8000C90690E08F719070009741F080E060E3AA
:101C900079E040E050E00E94330F03C080E00E94F2
:101CA000530F1F9108958093CA0608950F931F93B1
:101CB000CF93DF930097A1F08C01C5EBD6E0C8016C
:101CC0000E94FF1689930F5F1F4F86E0C53CD8071F
:101CD000B1F78CEC99E09093B4068093B30604C0FE
:101CE0001092B4061092B306DF91CF911F910F911D
:101CF00008950E94D4110E942C080E949E08FDCFD6
:101D000090E0FC01EA5FFE4F2491FC01EE50FF4F92
:101D1000E491EE2391F0F0E0EE0FFF1FEC52FF4F45
:101D200085919491DC01662329F48C91209582237E
:101D30008C9308958C91822B8C93089590E0FC01F4
:101D4000E65EFE4F2491FC01EA5FFE4F44918E5007
:101D50009F4FFC018491882309F43BC0222331F179
:101D6000233021F4909180009F7705C0243031F416
:101D7000909180009F7D9093800018C0213019F4CD
:101D800094B59F7704C0223021F494B59F7D94BD13
:101D90000DC0263021F49091B0009F7705C0273008
:101DA00029F49091B0009F7D9093B000E82FF0E06F
:101DB000EE0FFF1FE252FF4F25913491D9016623A8
:101DC00029F48C91409584238C9308958C91842BD5
:101DD0008C93089590E0FC01E65EFE4F2491FC0197
:101DE000EA5FFE4F44918E509F4FFC0184918823FF
:101DF000B1F1222331F1233021F4909180009F77BB
:101E000005C0243031F4909180009F7D9093800034
:101E100018C0213019F494B59F7704C0223021F402
:101E200094B59F7D94BD0DC0263021F49091B000F3
:101E30009F7705C0273029F49091B0009F7D909343
:101E4000B000E82FF0E0EE0FFF1FE851FF4F2591A3
:101E50003491D9018C91842321E030E011F420E009
:101E600030E0C90108958230E8F4E82FF0E0EE0F89
:101E7000FF1FE053F94F71836083813041F08091FF
:101E800069008C7F842B80936900E89A0895809183
:101E90006900440F551F440F551F837F842B809387
:101EA0006900E99A0895823068F4813011F0E89869
:101EB00001C0E998E82FF0E0EE0FFF1FE053F94F63
:101EC0001182108208951F920F920FB60F92112463
:101ED0002F933F934F935F936F937F938F939F9332
:101EE000AF93BF93EF93FF938091D0069091D1066B
:101EF000009729F0E091D006F091D1060995FF9165
:101F0000EF91BF91AF919F918F917F916F915F9171
:101F10004F913F912F910F900FBE0F901F901895EA
:101F20001F920F920FB60F9211242F933F934F934E
:101F30005F936F937F938F939F93AF93BF93EF9331
:101F4000FF938091D2069091D306009729F0E091FB
:101F5000D206F091D3060995FF91EF91BF91AF9111
:101F60009F918F917F916F915F914F913F912F91B1
:101F70000F900FBE0F901F901895FC01A085B185A2
:101F800021898C9190E0022E02C0959587950A9444
:101F9000E2F780FFF6CF0484F585E02D6083089595
:101FA0001F93CF93DF93182F9B01EB01C058DF4F96
:101FB000E881F981CF01019660E870E00E94AC13DE
:101FC000AC01D901AE57BF4F8D919C911197481725
:101FD000590729F0E20FF31F108359834883DF91DB
:101FE000CF911F9108951F920F920FB60F92112457
:101FF0002F933F934F935F936F937F938F939F9311
:10200000AF93BF93EF93FF938091C60064ED76E0AA
:102010000E94D00FFF91EF91BF91AF919F918F914F
:102020007F916F915F914F913F912F910F900FBED4
:102030000F901F9018958F929F92AF92BF92DF9250
:10204000EF92FF920F931F93CF93DF93EC017A01EE
:102050008B01413482E458078FE0680780E07807FD
:102060000CF07DC060E874E88EE190E0A801970173
:102070000E94E1132150304040405040CA01B90154
:1020800022E030E040E050E00E94E11349015A01B3
:10209000209530954095509594E0220F331F441FB2
:1020A000551F9A95D1F760E074E284EF90E00E94AA
:1020B000E113CA01B9012FEF30E040E050E00E9487
:1020C0007913A80197010E94E113C90181509F4F24
:1020D000181619061CF4D22EDA9403C0DD24D3940A
:1020E000D21A60E079E08DE390E0A80197010E94A8
:1020F000E1132150304040405040CA01B90122E074
:1021000030E040E050E00E94E1132095309540958A
:10211000509583E0220F331F441F551F8A95D1F736
:1021200060E074E284EF90E00E94E113CA01B9011B
:102130002FEF30E040E050E00E947913A8019701B2
:102140000E94E113C90181509F4F181619061CF413
:10215000822F815002C081E0821B8D1500F5E88539
:10216000F98581E090E00A8802C0880F991F0A94DF
:10217000E2F7808360E079E08DE390E0A8019701C9
:102180000E94E1132150304040405040CA01B90143
:1021900022E030E040E050E00E94E11304C0E88516
:1021A000F98510829401EC81FD813083EE81FF81FD
:1021B0002083EA85FB85408181E090E09C010E84CC
:1021C00002C0220F331F0A94E2F7422B4083EA85B4
:1021D000FB8540819C010F8402C0220F331F0A94AB
:1021E000E2F7422B4083EA85FB852081088802C004
:1021F000880F991F0A94E2F7282B2083DF91CF9153
:102200001F910F91FF90EF90DF90BF90AF909F9044
:102210008F900895FC0122813381F901E058FF4F2E
:102220008081918180589F4F2E573F4FF901208127
:102230003181821B930B60E870E00E94AC1308951B
:10224000DC0112962D913C911397F901EE57FF4F47
:1022500080819181D901A058BF4F4D915C91119718
:102260004817590769F0280F391FD9012C91019699
:1022700060E870E00E94AC139183808330E002C07C
:102280002FEF3FEFC901089589E095E0909359073A
:102290008093580784ED96E090935B0780935A07EC
:1022A00085EC90E090935D0780935C0784EC90E070
:1022B00090935F0780935E0780EC90E090936107B6
:1022C0008093600781EC90E09093630780936207AE
:1022D00086EC90E0909365078093640784E0809398
:1022E000660783E08093670787E08093680785E04F
:1022F0008093690781E080936A0708951F920F9287
:102300000FB60F9211242F933F938F939F93AF9308
:10231000BF9380916F0790917007A0917107B09162
:102320007207309173070196A11DB11D232F2D5FF8
:102330002D3720F02D570196A11DB11D2093730755
:1023400080936F0790937007A0937107B093720703
:1023500080916B0790916C07A0916D07B0916E070B
:102360000196A11DB11D80936B0790936C07A093FC
:102370006D07B0936E07BF91AF919F918F913F9181
:102380002F910F900FBE0F901F9018958FB7F89454
:1023900020916F073091700740917107509172073B
:1023A0008FBFB901CA010895789484B5826084BD55
:1023B00084B5816084BD85B5826085BD85B5816049
:1023C00085BDEEE6F0E0808181608083E1E8F0E0A9
:1023D000808182608083808181608083E0E8F0E09A
:1023E000808181608083E1EBF0E080818460808384
:1023F000E0EBF0E0808181608083EAE7F0E08081BB
:10240000846080838081826080838081816080831A
:102410008081806880831092C10008950F931F937C
:10242000CF93DF93EC01062F172F07C0E881F981C6
:102430000190F081E02DCE010995F80161918F01A5
:102440006623A1F7DF91CF911F910F910895EF922D
:10245000FF920F931F93CF93DF937C01EB018A01CF
:102460000BC06991D701ED91FC910190F081E02DB5
:10247000C7010995015010400115110591F7DF9131
:10248000CF911F910F91FF90EF900895DC01ED9196
:10249000FC910280F381E02D099508956F927F925F
:1024A0008F929F92AF92BF92CF92DF92EF92FF9264
:1024B0000F931F93DF93CF93CDB7DEB7A0970FB6DF
:1024C000F894DEBF0FBECDBF5C01CB01BA01611530
:1024D00071058105910551F4C50140E350E060E0CC
:1024E00070E020E030E00E94EA1248C06E010894DB
:1024F000C11CD11CEE24FF248701622E772488247E
:102500009924A40193010E94BF13F60161936F0106
:102510000894E11CF11C011D111DB901CA016115CE
:1025200071058105910569F7D801C7010197A109D6
:10253000B1096E010894C11CD11CC80ED91E19C066
:10254000F60140814A3010F4405D01C0495C5527D6
:1025500047FD5095652F752FC50120E030E00E94A2
:10256000EA120894E108F108010911090894C10868
:10257000D108E114F1040105110511F7A0960FB679
:10258000F894DEBF0FBECDBFCF91DF911F910F91A9
:10259000FF90EF90DF90CF90BF90AF909F908F9083
:1025A0007F906F9008952115310549F4DC01ED917C
:1025B000FC910190F081E02D642F099508950E940F
:1025C0004E1208959A01462F50E060E070E00E949C
:1025D000D3120895EF92FF920F931F93CF93DF933F
:1025E000EC017A018B012115310541F4E881F98173
:1025F0000190F081E02D642F09951BC02A30310530
:10260000B1F477FF10C04DE250E060E070E020E0F0
:1026100030E00E94EA1210950095F094E094E11CDD
:10262000F11C011D111DCE01B801A7012AE00E9475
:102630004E12DF91CF911F910F91FF90EF9008956F
:102640009A01FB01AF01662757FD6095762F0E9426
:10265000EA1208959A01462F552747FD5095652F98
:10266000752F0E94EA120895CF93DF93EC014DE09D
:1026700050E060E070E020E030E00E94EA12CE011D
:102680004AE050E060E070E020E030E00E94EA12B2
:10269000DF91CF910895CF93DF93EC019A01462FFC
:1026A00050E060E070E00E94D312CE010E9434132B
:1026B000DF91CF910895CF93DF93EC010E944612F2
:1026C000CE010E943413DF91CF910895CF93DF9311
:1026D000EC019A01CB01AC01662757FD6095762F7E
:1026E000CE010E94EA12CE010E943413DF91CF91F5
:1026F0000895629FD001739FF001829FE00DF11D4C
:10270000649FE00DF11D929FF00D839FF00D749F6B
:10271000F00D659FF00D9927729FB00DE11DF91F17
:10272000639FB00DE11DF91FBD01CF011124089574
:10273000AA1BBB1B51E107C0AA1FBB1FA617B707E7
:1027400010F0A61BB70B881F991F5A95A9F7809503
:102750009095BC01CD01089597FB092E07260AD05C
:1027600077FD04D0E5DF06D000201AF4709561955E
:102770007F4F0895F6F7909581959F4F0895A1E2B8
:102780001A2EAA1BBB1BFD010DC0AA1FBB1FEE1FEB
:10279000FF1FA217B307E407F50720F0A21BB30B36
:1027A000E40BF50B661F771F881F991F1A9469F7B2
:1027B00060957095809590959B01AC01BD01CF010E
:1027C000089597FB092E05260ED057FD04D0D7DFBC
:1027D0000AD0001C38F450954095309521953F4F14
:1027E0004F4F5F4F0895F6F79095809570956195DE
:1027F0007F4F8F4F9F4F0895EE0FFF1F0590F4916D
:10280000E02D0994FB01DC0102C001900D924150C2
:102810005040D8F70895FB01DC014150504030F0A2
:102820008D910190801919F40020B9F7881B990B3C
:102830000895AEE0B0E0EFE1F4E10C948A178DE08A
:102840008C838B899C899A8389839E01295E3F4F63
:10285000CE0101966D897E89A9010E94C8152E9628
:10286000E2E00C94A61720FD09C0FC0123FD05C081
:1028700022FF02C073836283518340830895EF92E5
:10288000FF920F931F9344FD10C046FD10C0DB0163
:10289000FC01AA0FBB1FEE1FFF1F1094D1F76A0F98
:1028A0007B1F8E1F9F1F31E003C033E001C034E067
:1028B000660F771F881F991F3150D1F77B018C015C
:1028C000E20EF11C011D111DA8019701B701CA01FB
:1028D0001F910F91FF90EF900895EF92FF920F9349
:1028E0001F93CF93DF938C01C8010E941A17EC014C
:1028F00097FD09C00E9407170097B1F77E01CE012E
:10290000B8010E945C17CE01CDB7DEB7E6E00C94AB
:10291000A2178F929F92AF92BF92DF92EF92FF9297
:102920000F931F93DF93CF930F92CDB7DEB74C0178
:10293000D62E5A01122F0E941A178B3219F08D329F
:1029400049F41068DA9409F46CC0C4010E941A17A3
:1029500097FD67C0312F3D7F232F2073F1F4803323
:10296000E1F4DA9409F448C0C40139830E941A17CB
:10297000398197FD41C03260883711F0883559F4AC
:102980003064DA94C9F1C40139830E941A1739817D
:1029900097FF03C031C036FF3061EE24FF2487016A
:1029A000282F2053283090F034FD09C02A3070F0D1
:1029B00036FF05C02F7D422F4151463030F0B40123
:1029C00039830E945C17398114C02750C801B701B0
:1029D000432F39830E943F147B018C01398132607F
:1029E000DA9469F0C40139830E941A17398197FF7C
:1029F000D7CF31FD04C015C0EE24FF24870137FF77
:102A000008C010950095F094E094E11CF11C011DA4
:102A1000111DC501B801A701232F0E94331481E0C5
:102A200001C080E00F90CF91DF911F910F91FF9037
:102A3000EF90DF90BF90AF909F908F900895A1E2AC
:102A4000B0E0E5E2F5E10C947E176C018A017901B2
:102A50009E012F5F3F4F80E2F90111928A95E9F7BD
:102A6000F601838080E090E0BB24992470E0A1E02F
:102A7000B0E0F70183FCA59083FEA1907F01AA201E
:102A800009F47FC0FA2DFE3511F4009751F1472F5C
:102A900050E04817590744F44A2D4D3551F14D3255
:102AA00019F4992001F103C0992009F4BA2C4A2D98
:102AB000469546954695F901E40FF11D4A2D47705C
:102AC0003D0102C0660C771C4A95E2F7908096287B
:102AD0009082AB1459F0AB1410F4A394E8CFAA94ED
:102AE000E6CF71E004C09924939401C09924019623
:102AF000C0CF992019F08E8180628E83772351F0A8
:102B0000CE018196FE013196208120952193E81710
:102B1000F907D1F7BB24B3944E010894811C911C92
:102B200001C0BB24C60169A30E941A1769A197FDC1
:102B300020C0282F269526952695F401E20FF11D39
:102B4000208130E0AC014770507002C03595279568
:102B50004A95E2F720FD04C0B6010E945C1709C047
:102B60000115110519F0F80181938F016150C9F623
:102B700002C0BB2031F40115110529F0F8011082C3
:102B800002C0EE24FF24C701A196EEE00C949A1730
:102B90004F925F926F927F929F92AF92BF92CF922D
:102BA000DF92EF92FF920F931F93DF93CF930F92D9
:102BB000CDB7DEB77C016B013A01FC0117821682AA
:102BC00000E0E9C0812F90E00E940717009721F0F4
:102BD000C7010E946D14DFC0153241F4F601A3FC59
:102BE0003591A3FE31916F01353261F4C7010E9426
:102BF0001A1797FDDCC0181709F4CDC0B7010E9461
:102C00005C17D7C03A3239F4A3FC3591A3FE319159
:102C10006F0111E001C010E099240FC01260692D0E
:102C200070E080E090E040E20E943F14962EF601B2
:102C3000A3FC3591A3FE31916F01232F20532A303D
:102C400068F311FF03C0992019F4B3C099249A9432
:102C5000383619F03C3689F409C0F601A3FC3591E9
:102C6000A3FE31916F01383641F418601460F6010B
:102C7000A3FC3591A3FE31916F01332309F499C070
:102C80008EE291E0632F70E039830E940F17398143
:102C9000009709F48EC0812F10FD08C0F301408019
:102CA000518042E050E0640E751E02C04424552459
:102CB0003E3651F4F7014681578160E070E0C20171
:102CC000212F0E94331467C0333691F481FD02C076
:102CD00099249394C7010E941A1797FD68C0411464
:102CE000510419F0F20181932F019A9499F751C080
:102CF0003B3559F4C701692DA20196010E941F15A9
:102D00006C01009709F045C03FC0C70139830E949C
:102D10006D14398197FD4BC03F3659F1303728F497
:102D2000343629F1393639F527C0333719F03537BC
:102D300011F51DC0C7010E941A175C0197FD11C053
:102D40000E940717009729F0C501B7010E945C1780
:102D500008C04114510419F0F201A1922F019A9474
:102D600049F741145104A9F0F201108212C0106217
:102D700003C0106101C01064C701692DA201212F99
:102D80000E948914882329F4F7018381807379F4E0
:102D900010C010FF0F5FF701A380F601A3FC15918F
:102DA000A3FE11916F01112309F00CCF02C0002383
:102DB00011F010E002C00FEF1FEFC8010F90CF918C
:102DC000DF911F910F91FF90EF90DF90CF90BF9018
:102DD000AF909F907F906F905F904F900895DC012F
:102DE000CB01FC01F999FECF06C0F2BDE1BDF89A16
:102DF000319600B40D9241505040B8F70895F999BA
:102E0000FECF92BD81BDF89A992780B508959111A2
:102E10006EC0803219F089508550D0F70895FC01BA
:102E20000590061621F00020D9F7C00108953197CA
:102E3000CF010895CF93DF93EC013B8130FF36C083
:102E400036FF09C03F7B3B838E819F8101969F8324
:102E50008E832A8129C032FF0FC0E881F9818081E9
:102E6000992787FD9095009719F430623B831EC027
:102E70003196F983E88311C0EA85FB85CE01099577
:102E800097FF0BC02B813FEF8F3F930711F480E139
:102E900001C080E2822B8B8309C02E813F812F5F8E
:102EA0003F4F3F832E83282F30E002C02FEF3FEFAC
:102EB000C901DF91CF910895FB01238120FF13C049
:102EC00026FD11C03FEF8F3F930769F08283206496
:102ED0002F7D2383268137812150304037832683FD
:102EE000282F30E002C02FEF3FEFC9010895992746
:102EF000882708952F923F924F925F926F927F9210
:102F00008F929F92AF92BF92CF92DF92EF92FF92F9
:102F10000F931F93CF93DF93CDB7DEB7CA1BDB0BA5
:102F20000FB6F894DEBF0FBECDBF09942A8839884A
:102F300048885F846E847D848C849B84AA84B98451
:102F4000C884DF80EE80FD800C811B81AA81B9815D
:102F5000CE0FD11D0FB6F894DEBF0FBECDBFED0171
:062F60000895F894FFCF74
:102F66004E6F64652049443A20002C207365713AFF
:102F760020002C2064617461203D00414C41524D7B
:102F86003A20536D6172746D65746572204C4F53AF
:102F96005420002050554C53452853292100414CBC
:102FA60041524D3A20436F756E746572206F766597
:102FB60072666C6F77206F7220636F6E74726F6CBF
:102FC6006C6572207265736574202D207365715F60
:102FD60064696666203D200020536D6172746D65DC
:102FE60074657220636F756E7465642070756C739A
:102FF60065206F6E206D657465723A20002C206D19
:10300600696C6C69733A20002C20646966663A2004
:1030160000536D6172746D657465722061676772C5
:103026006567617465643A002D002E0030002064E7
:1030360065677265657320432C206177616B653A1D
:1030460020006D732C205049523A200052455354AB
:10305600205055543A2055524C7B687474703A2F60
:103066002F79617664723A383038312F726573740D
:103076002F6974656D732F54656D70657261747513
:1030860072655F46465F4F66666963652F73746156
:1030960074657D2C20444154417B007D00446F6F54
:1030A6007262656C6C206261747465727920766FE9
:1030B6006C746167653A200056005741524E494E7E
:1030C600473A20444F4F5242454C4C2042415454BB
:1030D600455259204C4F573A200020444F4F5242F8
:1030E600454C4C210052455354205055543A2055D6
:1030F600524C7B687474703A2F2F79617664723AF9
:10310600383038312F726573742F6974656D732F7B
:10311600646F6F7262656C6C2F73746174657D2C5D
:1031260020444154417B4F4E7D004D534720494436
:103136003A203078003A200020536F636B65742084
:1031460053746174653A2047726F75703A20002C8B
:103156002049443A20002C2053746174653A2000BB
:1031660052455354205055543A2055524C7B68745E
:1031760074703A2F2F79617664723A383038312F6D
:10318600726573742F6974656D732F736F636B65E6
:10319600745F005F002F73746174657D2C20444159
:1031A60054417B004F4E7D004F46467D003A207BC2
:1031B60022736F636B65745F7374617465223A2062
:1031C6005B20002267726F7570223A202200222C43
:1031D60020226964223A202200222C202273746164
:1031E6007465223A2022002200205D207D3B005398
:1031F60077697463682049443A20002C204B65792E
:103206002049443A200052455354205055543A2000
:1032160055524C7B687474703A2F2F7961766472BC
:103226003A383038312F726573742F6974656D734F
:103236002F7377697463685F00556E6B6E6F776E78
:10324600206E6F64653A2069643A20002C20686419
:10325600723A20306200202830780029002C206C39
:10326600656E6774683A2000537769746368696E9F
:1032760067205246313220536F636B65743A20479C
:10328600726F75703A2000210053554343455353DE
:1032960021004641494C454421003A207B74726125
:1032A6006E736D697474696E672049523A002070B6
:1032B600726F746F3A20002C20636F64653A2000A9
:1032C600737461746500506F6C6C696E672052464A
:1032D600313220536F636B65743A2047726F757095
:1032E6003A20004F4646004F4E00494E56414C4943
:1032F6004420434F4D4D414E440053657474696EEE
:10330600672062757A7A657220746F203100556E77
:103316007265636F676E697A656420537472696E4D
:103326006720286C656E6774683A2000293A200089
:103336005B416C697320486F6D65204175746F6DD4
:103346006174696F6E204E6574776F726B202D20E5
:103356004D6173746572204E6F64655D006B6579AF
:103366003A002C00FF00000000BD0F0E12271200CD
:00000001FF
