:100000000C94A4000C94180D0C94450D0C94CC0089
:100010000C94CC000C94CC000C94CC000C94CC0030
:100020000C94CC000C94CC000C94CC000C94CC0020
:100030000C94CC000C94CC000C94CC000C94CC0010
:100040000C94720D0C94CC000C94640E0C94CC00A7
:100050000C94CC000C94CC000C94CC000C94CC00F0
:100060000C94CC000C94CC004D53472049443A20CA
:100070003078253034783A20636F6D6D616E643D61
:1000800069722E25642E25642E256C782E256C78B9
:10009000004D53472049443A203078253034783A8F
:1000A00020636F6D6D616E643D736F636B65747318
:1000B00074617465004D53472049443A20307825D7
:1000C0003034783A20636F6D6D616E643D736F6399
:1000D0006B65742E25642E25642E256400000000B7
:1000E00000240027002A0000000000250028002B23
:1000F000000000000023002600290004040404047A
:1001000004040402020202020203030303030301C4
:10011000020408102040800102040810200102049B
:100120000810200000000700020100000304060080
:10013000000000000000006364696E6F70737578E2
:10014000585B00009805B50F11241FBECFEFD8E013
:10015000DEBFCDBF13E0A0E0B1E0E4E4F8E202C00E
:1001600005900D92A636B107D9F715E0A6E6B3E0E3
:1001700001C01D92AC39B107E1F711E0C8E4D1E04C
:1001800004C02297FE010E947B10C434D107C9F736
:100190000E94EF0F0C9420140C9400001F93CF9337
:1001A000DF93182FEB0161E00E94000BC631D105EF
:1001B00014F0649702C0C1E0D0E0CE010E94EA0DC5
:1001C000812F60E00E94000BDF91CF911F91089575
:1001D000882329F089E090E068EC74E004C089E0AD
:1001E00090E069E072E00E94CE0081EC9CE00E9409
:1001F000EA0D0895CF93DF93C9E8D5E0CE0160E022
:1002000071E00E94CD0B60919204CE0140E150E07C
:100210000E94690CCE0168E071E00E94CD0B409114
:10022000D8045091D9046091DA047091DB04CE01B6
:100230002AE030E00E94710CCE0160E171E00E9482
:10024000CD0BDF91CF9108950F931F93CF93DF9341
:10025000A6E6B3E0E4E9F4E089E101900D92815073
:10026000E1F70E94FA00C6E6D3E08E010B5F1F4F54
:1002700089E895E060E240E050E00E94B10C6991AD
:1002800089E895E04AE050E00E94B10C89E895E0E9
:1002900060E240E050E00E94B10CF80141915191C0
:1002A000619171918F0189E895E02AE030E00E9428
:1002B0005A0CF3E0CB36DF07D9F689E895E00E94C7
:1002C000BB0CDF91CF911F910F910895CF93DF93D6
:1002D000AFE7B3E0E4E9F4E086E001900D928150ED
:1002E000E1F7C0918103D09182030E94FA0089E86E
:1002F00095E060E240E050E00E94B10CD7FF09C0F9
:10030000D095C195DF4F89E895E069E171E00E94E1
:10031000CD0BCE0164E670E00E941510EC0189E877
:1003200095E04AE050E00E94A70C89E895E06BE177
:1003300071E00E94CD0BCA30D10534F489E895E014
:100340006DE171E00E94CD0B89E895E0BE014AE0C5
:1003500050E00E94A70C89E895E06FE171E00E94EF
:10036000CD0B609183037091840389E895E04AE0A6
:1003700050E00E94A70C89E895E063E371E00E94D9
:10038000CD0B60917F037091800389E895E04AE08E
:1003900050E00E94A70C89E895E00E94BB0CDF9119
:1003A000CF9108951F93CF93DF9310919204C9E8E2
:1003B000D5E0CE016DE371E00E94CD0B612F70E0BE
:1003C0006F717070CE014AE050E00E94A70CCE0120
:1003D00060E571E00E94CD0B60919204CE0142E095
:1003E00050E00E94690CCE016AE571E00E94CD0BDD
:1003F00060919204CE0140E150E00E94690CCE0170
:100400006FE571E00E94CD0BCE0168E071E00E94C3
:10041000CD0B4091D8045091D9046091DA047091C9
:10042000DB04CE012AE030E00E94DD0CDF91CF91A9
:100430001F9108950E946C098823C9F180918F044F
:1004400090919004009799F58091920490E08F71BB
:1004500090708530910529F580919304893121F5BB
:100460000E94240106C0809193048630E9F40E9422
:1004700066018091920485FF1AC08091920487FDE5
:1004800016C08091920486FD05C0809192048F7100
:10049000806C01C080E860E070E040E00E940F0ADC
:1004A000089586309105F9F20E94D201E2CF0895B5
:1004B0009F92AF92BF92CF92DF92EF92FF920F93F3
:1004C0001F93CF93DF93C82EB92EA62E942EDD2432
:1004D00034C089910E94E8007E01EC18EA14C8F348
:1004E0000E94BA0D8B010E941A020E94BA0D7B0174
:1004F000EB01C01BD10B1C161D069CF489E895E08E
:1005000061E671E00E94CD0B89E895E0BE014AE00A
:1005100050E00E94A70C89E895E068E671E00E942F
:10052000D20C0A5E1F4F0E191F09B801882777FDEC
:100530008095982F0E94C80DD394D91430F42C2D97
:10054000E9017E01FB2CE701C7CFDF91CF911F911D
:100550000F91FF90EF90DF90CF90BF90AF909F9062
:100560000895FF920F931F93CF93DF9389E895E04F
:1005700063E871E00E94CD0B40918704509188049C
:100580006091890470918A0489E895E020E130E067
:100590000E945A0C89E895E06EE871E00E94CD0B4C
:1005A0000BE814E0C0E0D0E089E895E064EA71E08F
:1005B0000E94CD0BF801F1908F0189E895E066EA81
:1005C00071E00E94CD0B89E895E061E070E04AE0BF
:1005D00050E00E94A70C89E895E061EB71E00E9471
:1005E000CD0B219689E895E0BE014AE050E00E94DB
:1005F000A70C89E895E06CEB71E00E94CD0B89E8CF
:1006000095E06F2D70E04AE050E00E94A70C89E869
:1006100095E06AEC71E00E94CD0B89E895E06CEC06
:1006200071E00E94CD0BC430D10531F089E895E02E
:100630006EEC71E00E94CD0BC430D10509F0B4CF4F
:1006400089E895E061ED71E00E94D20CDF91CF91D5
:100650001F910F91FF900895CF92DF92EF92FF923A
:100660000F931F93CF93DF936C018B017A01C9E83D
:10067000D5E0CE0167ED71E00E94CD0BCE016AEEB0
:1006800071E00E94CD0BB6016F5F7F4FCE014AE053
:1006900050E00E94A70CCE0162EF71E00E94CD0BEA
:1006A000B8016F5F7F4FCE014AE050E00E94A70C77
:1006B000CE0169EF71E00E94CD0BCE01B7014AE097
:1006C00050E00E94A70CCE010E94BB0C000F111F2E
:1006D0000E0D1F1D2AE130E0029FC001039F900D07
:1006E000129F900D112485579D4F6AE149E10E94A8
:1006F0005802DF91CF911F910F91FF90EF90DF9003
:10070000CF900895EF92FF920F931F93CF93DF93B3
:100710008C017B01C9E8D5E0CE0163E871E00E945D
:10072000CD0B4091870450918804609189047091A9
:100730008A04CE0120E130E00E945A0CCE0163E031
:1007400072E00E94CD0BCE0167E172E00E94CD0BFA
:10075000CE01B8014AE050E00E94A70CCE0160E251
:1007600072E00E94CD0BCE01B7014AE050E00E943A
:10077000A70CCE016BE272E00E94CD0BCE0140E0EF
:1007800050E0BA0120E130E00E945A0CCE0144E46E
:1007900053E362E271E120E130E00E945A0CCE01A5
:1007A0006CEC71E00E94D20CDF91CF911F910F9100
:1007B000FF90EF9008952F923F924F925F926F9229
:1007C0007F928F929F92AF92BF92CF92DF92EF92E1
:1007D000FF920F931F93DF93CF93CDB7DEB762974E
:1007E0000FB6F894DEBF0FBECDBF55E8C52E53E05F
:1007F000D52E812C41E0942E35EB632E30E0732E04
:1008000027E8A22E24E0B22E2E010894411C511C90
:1008100093E0292E312C2C0E3D1E02C180918504BF
:10082000909186048F3F91050CF0F1C089E895E026
:100830000E94910F80938A028A3019F08D3009F05E
:10084000D7C02DB73EB72C5030400FB6F8943EBFFE
:100850000FBE2DBFEDB7FEB73196ADB7BEB712963E
:10086000DC92CE92119773826282B582A482578203
:1008700046823186208625E030E02C0F3D1F3387ED
:1008800022870E948810ADB7BEB71C960FB6F894A9
:10089000BEBF0FBEADBF84309105E9F4E981FA8196
:1008A0008B819C81E80FF91FE757FB4F21E08D8179
:1008B0009E81009709F420E020830E94B102898183
:1008C0009A816B817C81615070404D815E8101977E
:1008D0000E942C0386C000D000D000D0EDB7FEB738
:1008E0003196ADB7BEB71296DC92CE92119721E940
:1008F00030E033832283B582A4820E948810ADB792
:10090000BEB716960FB6F894BEBF0FBEADBF81300E
:10091000910519F40E94B10264C0EDB7FEB73E978D
:100920000FB6F894FEBF0FBEEDBF3196ADB7BEB7A0
:100930001296DC92CE92119728E630E03383228320
:10094000B582A48287E090E08C0F9D1F97838683F9
:10095000A9E0B0E0AC0FBD1FB187A0872BE030E06D
:100960002C0F3D1F338722878FE090E08C0F9D1F57
:10097000958784870E948810ADB7BEB71E960FB6C4
:10098000F894BEBF0FBEADBF8530910579F469857F
:100990007A852B853C854D855E85EF84F8880989AD
:1009A0001A898F8198850E9482031BC089E895E08F
:1009B00064E372E00E94CD0B60918504709186041F
:1009C00089E895E04AE050E00E94A70C89E895E0AC
:1009D00062E572E00E94CD0B89E895E0B6010E94C5
:1009E000D20CF6019401119221503040E1F714C06D
:1009F0002091850430918604F901EB57FC4F8083E8
:100A00002F5F3F4F309386042093850409C0D601A1
:100A1000F4011D923197E9F7109286041092850433
:100A200089E895E00E947B0F882309F0F7CE629653
:100A30000FB6F894DEBF0FBECDBFCF91DF911F91EF
:100A40000F91FF90EF90DF90CF90BF90AF909F906D
:100A50008F907F906F905F904F903F902F90089570
:100A6000EF92FF920F931F93DF93CF93CDB7DEB733
:100A700060970FB6F894DEBF0FBECDBF89E895E052
:100A800040E051EE60E070E00E948C0E89E895E055
:100A900066E572E00E94D20C8E010F5F1F4FC80105
:100AA00060E470E040E150E00E945E1389E895E068
:100AB00063E872E00E94CD0B61E1E62EF12CEC0EB2
:100AC000FD1EF80161918F0189E895E040E050E05A
:100AD0000E94690C89E895E068E872E00E94CD0BFD
:100AE0000E151F0571F789E895E00E94BB0C89E09F
:100AF00061E00E94E20A81E062E04AE220E436EA34
:100B00000E941E0A80E490E00E94BF0A60960FB621
:100B1000F894DEBF0FBECDBFCF91DF911F910F9133
:100B2000FF90EF9008950E94DB030E941A0208953F
:100B300008959C012627622F62956227062E6695EE
:100B400066956025062E669560256770022E232F18
:100B5000669507946795302D26270694679530256E
:100B60002627C90108958EBD0DB407FEFDCF8EB5B1
:100B70000895EF92FF921F93CF93DF93182F2A9837
:100B8000892F0E94B305982F80E0EC01812F0E94ED
:100B9000B3052A9A282F30E02C2B3D2BC901DF9179
:100BA000CF911F91FF90EF9008951F9380E090E008
:100BB0000E94B9058091F3048530E9F580E090EB5F
:100BC0000E94B905682F8091F704882371F49091F1
:100BD000F404992351F08091F704E82FF0E0EF56E8
:100BE000FB4F90838F5F8093F7048091F704E82F89
:100BF000F0E0EF56FB4F60838F5F8093F7048091A6
:100C00008F04909190040E94990590939004809392
:100C10008F04809193042091F70490E0049630E0D3
:100C2000821793072CF08091F704873408F457C09B
:100C30008DE092E852C08091F30487FF1AC0E091E2
:100C400093048091F304982F9F5F9093F304ED5FDA
:100C5000E80FF0E0EF56FB4F108180918F049091E8
:100C60009004612F0E9499059093900480938F04C3
:100C700030C08091F304982F9F5F9093F3048330EA
:100C800019F184302CF4882399F0813009F516C0CD
:100C9000893019F08A30E1F402C01DE21AC01091C7
:100CA0009104909193048EEF891B8093F30411C0FB
:100CB00080918F0490919004182F0BC080918F0425
:100CC00090919004192F05C08DE092E80E94B9051B
:100CD0001AEA812F90E0805098440E94B9051F9134
:100CE00008952F923F924F925F926F927F928F92D0
:100CF0009F92AF92BF92CF92DF92EF92FF920F93AB
:100D00001F93DF93CF93CDB7DEB729970FB6F89433
:100D1000DEBF0FBECDBF882309F45EC1E09193040E
:100D20008091EE049091EF04A091F004B091F10451
:100D30000196A11DB11D8093EE049093EF04A09342
:100D4000F004B093F104F0E0EC56FB4F8083918304
:100D5000A283B383809193048095837090919304D0
:100D6000980F90939304E0919304F0E0EC56FB4FBE
:100D700090819F739083E0919304F0E0EC56FB4FD9
:100D800090818295880F880F807C892B8083809149
:100D900093048F5F80939304809193048695869546
:100DA00082300CF480C2682E772467FC709408941B
:100DB000610871084301880C991C880C991C04E98E
:100DC000202E04E0302E820C931CF401808191814E
:100DD000A281B381AA24BB24650119EB212E19E756
:100DE000312E17E3412E1EE9512EA20CB31CC41C58
:100DF000D51CA6019501F2E05695479537952795A4
:100E0000FA95D1F7722F737060E065C04E815F81F3
:100E1000440F551F440F551F48565B4FFA01E080A1
:100E2000F180028113814E815F81440F551F440F71
:100E3000551F4C565B4F5F834E832727E22FF0E010
:100E4000EE0FFF1FEE0FFF1FE252FB4F208131819B
:100E50004281538182279327A427B527A8019701B0
:100E60002A253B254C255D25820F931FA41FB51F06
:100E7000A8019701F3E05695479537952795FA9580
:100E8000D1F72225332544255525E2E0EE0CFF1C41
:100E9000001F111FEA95D1F729803A804B805C80B2
:100EA000E224F324042515252E0D3F1D401F511F5C
:100EB00082279327A427B527EE81FF8120813181E6
:100EC00042815381820F931FA41FB51F808391839A
:100ED000A283B3836F5F262E33243F822E82262F78
:100EE00023701C012D01F4E0220C331C441C551C02
:100EF000FA95D1F77C018D01E5E016950795F794F9
:100F0000E794EA95D1F7E982FA820B831C830E817C
:100F10001F81061517050CF479CFE0909404F0902A
:100F2000950400919604109197042727E22FF0E092
:100F3000EE0FFF1FEE0FFF1FE252FB4F20813181AA
:100F40004281538182279327A427B527A6019501C3
:100F50002E253F2540275127820F931FA41FB51F21
:100F6000A801970163E056954795379527956A95AF
:100F7000D1F72225332544255525F2E0EE0CFF1C40
:100F8000001F111FFA95D1F729803A804B805C80B1
:100F9000E224F324042515252E0D3F1D401F511F6B
:100FA00082279327A427B527F4012081318142812C
:100FB0005381820F931FA41FB51F80839183A28347
:100FC000B383F6E5AF16FAEDBF06FCE4CF06F5EB0A
:100FD000DF0609F002CF67C180918F0490919004E1
:100FE000009709F060C180919304869586958230C0
:100FF0000CF410C120919404309195044091960412
:1010000050919704682F772767FD7095660F771FBB
:10101000660F771F60577B4F96E5A92E9AEDB92E84
:101020009CE4C92E95EBD92E81508D837F836E83EE
:10103000D601C50102E0B695A795979587950A95C3
:10104000D1F7782F73706D815FC0862F90E0FC011F
:10105000EE0FFF1FEE0FFF1FE057FB4FE080F18008
:10106000028113819C01220F331F220F331F2C5644
:101070003B4F39872887E62FE370E727F0E0EE0F34
:10108000FF1FEE0FFF1FE252FB4F80819181A28173
:10109000B3818E259F25A027B12729813A814B81D5
:1010A0005C81820F931FA41FB51FA8019701F4E074
:1010B000220F331F441F551FFA95D1F726253725D8
:1010C00048255925E5E016950795F794E794EA95A4
:1010D000D1F7E224F324042515252E0D3F1D401FD2
:1010E000511F82279327A427B527E885F9852081FA
:1010F000318142815381281B390B4A0B5B0B2083C2
:10110000318342835383615019012A012A243B24ED
:101110004C245D2429823A824B825C8239014A0147
:10112000B3E09694879477946794BA95D1F71901B0
:101130002A01A2E0220C331C441C551CAA95D1F7AD
:10114000662309F082CFAE81BF81ED90FD900D91B5
:101150001C91D801C701F4E0880F991FAA1FBB1F7B
:10116000FA95D1F786259725A825B925A8019701D5
:10117000E5E05695479537952795EA95D1F72225CD
:10118000332544255525820F931FA41FB51FE72F34
:10119000F0E0EE0FFF1FEE0FFF1FE252FB4F20812A
:1011A0003181428153812E253F25402751272980B7
:1011B0003A804B805C80220D331D441D551D8227D3
:1011C0009327A427B527209194043091950440914A
:1011D000960450919704281B390B4A0B5B0B209304
:1011E000940430939504409396045093970467E4D5
:1011F000E62E66E8F62E68EC062F61E6162FAE0C9A
:10120000BF1CC01ED11EA114B104C104D10409F039
:101210000FCF03C0882309F446C080919304815006
:1012200080939304E0919304F0E0EC56FB4F6081CF
:101230006295669566956370E0919304F0E0EC56D4
:10124000FB4F808190E0A0E0B0E08F739070A070C1
:10125000B0708093D8049093D904A093DA04B0932B
:10126000DB0417C0BA2FA92F982F88272091930449
:10127000215020939304E0919304F0E0EC56FB4F4F
:10128000208130E040E050E0822B932BA42BB52B43
:101290006150662339F78093D8049093D904A093C2
:1012A000DA04B093DB0429960FB6F894DEBF0FBEC4
:1012B000CDBFCF91DF911F910F91FF90EF90DF9005
:1012C000CF90BF90AF909F908F907F906F905F90E6
:1012D0004F903F902F9008958091F304853009F04E
:1012E00040C0809193042091F70490E0049630E090
:1012F0008217930724F08091F704873490F184E0FB
:101300008093F30480919304833430F081E090E083
:101310009093900480938F048091920486FF12C072
:101320002091F20430E0C9018F7190708F319105E6
:1013300049F08091920490E0822793278F719070FA
:10134000009779F480918F0490919004009771F543
:10135000E091DC04F091DD04309741F180E00995E3
:1013600031C08091F3048430F9F410929304809199
:1013700093048093F7048FEF9FEF909390048093F2
:101380008F046091F404662331F00E9499059093D4
:10139000900480938F0485E08093F3048DED92E8B0
:1013A0000E94B90580E0089580E008958FEF9FEFD7
:1013B000AFEFBFEF8093D8049093D904A093DA04E1
:1013C000B093DB0481E0089586FD05C0807E909196
:1013D000F2049F71890F80939204E091DC04F091F4
:1013E000DD04309711F081E009958FEF9FEF909326
:1013F000900480938F0480918F0490919004609169
:1014000091040E9499059093900480938F0486E044
:101410008093F3048DE392E80E94B90508951F9329
:10142000182F4093930424E934E0C90150E00E944E
:101430007F10812F0E94E4091F9108951F93162F9A
:101440008093F2044093F4043093F6042093F5045F
:101450002A9A229A8AE061E00E94000B8AE061E009
:101460000E94E20A8BE061E00E94E20A8CE060E008
:101470000E94E20A8DE061E00E94E20A81E58CBDF3
:101480008DB581608DBD85E060E00E94E20A85E057
:1014900061E00E94000B80E090E00E94B90585E0C9
:1014A00092E80E94B90580E098EB02C080E090E0ED
:1014B0000E94B90585E00E944C0B0097B9F3812F7B
:1014C00090E024E0880F991F2A95E1F7876C9068D7
:1014D0000E94B9058091F5049091F6040E94B90527
:1014E00086E096EC0E94B90582EA94E90E94B9056B
:1014F0008CEA92EC0E94B9051091F404112341F09A
:1015000083E89AEC0E94B905812F90E09E6C06C09A
:101510008BE89AEC0E94B9058DE29EEC0E94B90519
:1015200083E894EC0E94B90580E598E90E94B9052A
:1015300087E79CEC0E94B90580E090EE0E94B90517
:1015400080E098EC0E94B90589E490EC0E94B9050E
:1015500084E08093F3048091F20490E08F719070A6
:10156000009741F080E065ED75E040E050E00E94BA
:10157000E80C03C080E00E94080D1F9108950F93AE
:101580001F93CF93DF930097A1F08C01CEEDD4E0B1
:10159000C8010E946E1389930F5F1F4F84E0CE3EF7
:1015A000D807B1F781E796E09093DD048093DC04DF
:1015B00004C01092DD041092DC04DF91CF911F91E2
:1015C0000F91089590E0FC01E15FFE4F2491FC0132
:1015D000E550FF4FE491EE2391F0F0E0EE0FFF1F96
:1015E000E352FF4F85919491DC01662329F48C919D
:1015F000209582238C9308958C91822B8C9308954F
:1016000090E0FC01ED5DFE4F2491FC01E15FFE4F97
:10161000449185509F4FFC018491882309F43BC07D
:10162000222331F1233021F4909180009F7705C06F
:10163000243031F4909180009F7D9093800018C0F9
:10164000213019F494B59F7704C0223021F494B569
:101650009F7D94BD0DC0263021F49091B0009F77FE
:1016600005C0273029F49091B0009F7D9093B00081
:10167000E82FF0E0EE0FFF1FE951FF4F2591349165
:10168000D901662329F48C91409584238C93089585
:101690008C91842B8C93089590E0FC01ED5DFE4FBE
:1016A0002491FC01E15FFE4F449185509F4FFC0166
:1016B00084918823B1F1222331F1233021F49091D8
:1016C00080009F7705C0243031F4909180009F7D89
:1016D0009093800018C0213019F494B59F7704C00E
:1016E000223021F494B59F7D94BD0DC0263021F4A5
:1016F0009091B0009F7705C0273029F49091B000F9
:101700009F7D9093B000E82FF0E0EE0FFF1FEF50A9
:10171000FF4F25913491D9018C91842321E030E051
:1017200011F420E030E0C90108950F931F93CF9387
:10173000DF93EC01062F172F07C0E881F981019094
:10174000F081E02DCE010995F80161918F016623AA
:10175000A1F7DF91CF911F910F910895EF92FF9222
:101760000F931F93CF93DF937C01EB018A010BC092
:101770006991D701ED91FC910190F081E02DC701B5
:101780000995015010400115110591F7DF91CF9196
:101790001F910F91FF90EF900895DC01ED91FC9166
:1017A0000280F381E02D099508956F927F928F92C8
:1017B0009F92AF92BF92CF92DF92EF92FF920F93E0
:1017C0001F93DF93CF93CDB7DEB7A0970FB6F894F2
:1017D000DEBF0FBECDBF5C01CB01BA016115710543
:1017E0008105910551F4C50140E350E060E070E0EF
:1017F00020E030E00E94710C48C06E010894C11CCA
:10180000D11CEE24FF248701622E7724882499249A
:10181000A40193010E942810F60161936F010894BE
:10182000E11CF11C011D111DB901CA0161157105F1
:101830008105910569F7D801C7010197A109B1098F
:101840006E010894C11CD11CC80ED91E19C0F60126
:1018500040814A3010F4405D01C0495C552747FD86
:101860005095652F752FC50120E030E00E94710C66
:101870000894E108F108010911090894C108D10888
:10188000E114F1040105110511F7A0960FB6F894C3
:10189000DEBF0FBECDBFCF91DF911F910F91FF90A3
:1018A000EF90DF90CF90BF90AF909F908F907F9000
:1018B0006F9008952115310549F4DC01ED91FC91FB
:1018C0000190F081E02D642F099508950E94D50BB9
:1018D00008959A01462F50E060E070E00E945A0C93
:1018E0000895EF92FF920F931F93CF93DF93EC0134
:1018F0007A018B012115310541F4E881F9810190CC
:10190000F081E02D642F09951BC02A303105B1F418
:1019100077FF10C04DE250E060E070E020E030E082
:101920000E94710C10950095F094E094E11CF11C5C
:10193000011D111DCE01B801A7012AE00E94D50B9F
:10194000DF91CF911F910F91FF90EF9008959A0131
:10195000FB01AF01662757FD6095762F0E94710C41
:1019600008959A01462F552747FD5095652F752FED
:101970000E94710C0895CF93DF93EC014DE050E08D
:1019800060E070E020E030E00E94710CCE014AE09F
:1019900050E060E070E020E030E00E94710CDF91E8
:1019A000CF910895CF93DF93EC010E94CD0BCE0130
:1019B0000E94BB0CDF91CF910895CF93DF93EC0190
:1019C0000E94710CCE010E94BB0CDF91CF91089553
:1019D0008230E8F4E82FF0E0EE0FFF1FE850FB4FF5
:1019E00071836083813041F0809169008C7F842B0A
:1019F00080936900E89A089580916900440F551F0B
:101A0000440F551F837F842B80936900E99A0895C2
:101A1000823068F4813011F0E89801C0E998E82F2D
:101A2000F0E0EE0FFF1FE850FB4F11821082089587
:101A30001F920F920FB60F9211242F933F934F9343
:101A40005F936F937F938F939F93AF93BF93EF9326
:101A5000FF938091F8049091F904009729F0E091A8
:101A6000F804F091F9040995FF91EF91BF91AF91BE
:101A70009F918F917F916F915F914F913F912F91A6
:101A80000F900FBE0F901F9018951F920F920FB6D8
:101A90000F9211242F933F934F935F936F937F93F4
:101AA0008F939F93AF93BF93EF93FF938091FA042B
:101AB0009091FB04009729F0E091FA04F091FB0467
:101AC0000995FF91EF91BF91AF919F918F917F9178
:101AD0006F915F914F913F912F910F900FBE0F909B
:101AE0001F9018951F920F920FB60F9211242F93EB
:101AF0003F938F939F93AF93BF93809100059091F5
:101B00000105A0910205B0910305309104050196ED
:101B1000A11DB11D232F2D5F2D3720F02D570196CC
:101B2000A11DB11D2093040580930005909301052C
:101B3000A0930205B09303058091FC049091FD04ED
:101B4000A091FE04B091FF040196A11DB11D8093E8
:101B5000FC049093FD04A093FE04B093FF04BF9196
:101B6000AF919F918F913F912F910F900FBE0F904A
:101B70001F9018958FB7F8942091000530910105BA
:101B800040910205509103058FBFB901CA01089524
:101B9000AF92BF92CF92DF92EF92FF920F931F937B
:101BA0007B018C010E94BA0D5B016C010E94BA0D91
:101BB0006A197B098C099D09E616F70608071907BB
:101BC000A8F71F910F91FF90EF90DF90CF90BF90FB
:101BD000AF900895019739F0880F991F880F991FCA
:101BE00002970197F1F70895789484B5826084BDD7
:101BF00084B5816084BD85B5826085BD85B5816011
:101C000085BDEEE6F0E0808181608083E1E8F0E070
:101C1000808182608083808181608083E0E8F0E061
:101C2000808181608083E1EBF0E08081846080834B
:101C3000E0EBF0E0808181608083EAE7F0E0808182
:101C400084608083808182608083808181608083E2
:101C50008081806880831092C1000895FC01A08576
:101C6000B18521898C9190E0022E02C095958795CF
:101C70000A94E2F780FFF6CF0484F585E02D6083B7
:101C800008951F93CF93DF93182F9B01EB01C0584A
:101C9000DF4FE881F981CF01019660E870E00E9492
:101CA0001510AC01D901AE57BF4F8D919C91119782
:101CB0004817590729F0E20FF31F1083598348830F
:101CC000DF91CF911F9108951F920F920FB60F923F
:101CD00011242F933F934F935F936F937F938F9331
:101CE0009F93AF93BF93EF93FF938091C60065E0FE
:101CF00075E00E94410EFF91EF91BF91AF919F91CE
:101D00008F917F916F915F914F913F912F910F90A4
:101D10000FBE0F901F9018958F929F92AF92BF9217
:101D2000DF92EF92FF920F931F93CF93DF93EC011B
:101D30007A018B01413482E458078FE0680780E024
:101D400078070CF07DC060E874E88EE190E0A801AF
:101D500097010E944A102150304040405040CA0133
:101D6000B90122E030E040E050E00E944A10490111
:101D70005A01209530954095509594E0220F331FDD
:101D8000441F551F9A95D1F760E074E284EF90E00C
:101D90000E944A10CA01B9012FEF30E040E050E044
:101DA0000E94F60FA80197010E944A10C9018150B4
:101DB0009F4F181619061CF4D22EDA9403C0DD24A6
:101DC000D394D21A60E079E08DE390E0A801970106
:101DD0000E944A102150304040405040CA01B90191
:101DE00022E030E040E050E00E944A10209530951B
:101DF0004095509583E0220F331F441F551F8A954D
:101E0000D1F760E074E284EF90E00E944A10CA01CA
:101E1000B9012FEF30E040E050E00E94F60FA8013A
:101E200097010E944A10C90181509F4F1816190648
:101E30001CF4822F815002C081E0821B8D1500F5B9
:101E4000E885F98581E090E00A8802C0880F991F33
:101E50000A94E2F7808360E079E08DE390E0A801E6
:101E600097010E944A102150304040405040CA0122
:101E7000B90122E030E040E050E00E944A1004C086
:101E8000E885F98510829401EC81FD813083EE8133
:101E9000FF812083EA85FB85408181E090E09C0101
:101EA0000E8402C0220F331F0A94E2F7422B4083B4
:101EB000EA85FB8540819C010F8402C0220F331FFD
:101EC0000A94E2F7422B4083EA85FB85208108884B
:101ED00002C0880F991F0A94E2F7282B2083DF9114
:101EE000CF911F910F91FF90EF90DF90BF90AF9037
:101EF0009F908F900895FC0122813381F901E05871
:101F0000FF4F8081918180589F4F2E573F4FF9019D
:101F100020813181821B930B60E870E00E941510D4
:101F20000895DC0112962D913C911397F901EE571B
:101F3000FF4F80819181D901A058BF4F4D915C9195
:101F400011974817590769F0280F391FD9012C91AB
:101F5000019660E870E00E9415109183808330E064
:101F600002C02FEF3FEFC90108958FE593E09093F2
:101F70008A058093890585E095E090938C05809390
:101F80008B0585EC90E090938E0580938D0584EC15
:101F900090E09093900580938F0580EC90E0909373
:101FA00092058093910581EC90E090939405809345
:101FB000930586EC90E0909396058093950584E0D8
:101FC0008093970583E08093980587E08093990537
:101FD00085E080939A0581E080939B0508950E9497
:101FE000F40D0E9430050E949305FDCF629FD00141
:101FF000739FF001829FE00DF11D649FE00DF11DC4
:10200000929FF00D839FF00D749FF00D659FF00D72
:102010009927729FB00DE11DF91F639FB00DE11D5F
:10202000F91FBD01CF011124089597FB092E072642
:102030000AD077FD04D049D006D000201AF470955C
:1020400061957F4F0895F6F7909581959F4F08957C
:10205000A1E21A2EAA1BBB1BFD010DC0AA1FBB1FAC
:10206000EE1FFF1FA217B307E407F50720F0A21B1E
:10207000B30BE40BF50B661F771F881F991F1A948B
:1020800069F760957095809590959B01AC01BD01B5
:10209000CF01089597FB092E05260ED057FD04D0D9
:1020A000D7DF0AD0001C38F4509540953095219523
:1020B0003F4F4F4F5F4F0895F6F79095809570957D
:1020C00061957F4F8F4F9F4F0895AA1BBB1B51E116
:1020D00007C0AA1FBB1FA617B70710F0A61BB70B98
:1020E000881F991F5A95A9F780959095BC01CD013D
:1020F0000895EE0FFF1F0590F491E02D0994FB0168
:10210000DC0102C001900D9241505040D8F7089573
:10211000AEE0B0E0EEE8F0E10C94F9138DE08C83D2
:102120008B899C899A8389839E01295E3F4FCE01CA
:1021300001966D897E89A9010E9437122E96E2E0F0
:102140000C94151420FD09C0FC0123FD05C022FFDD
:1021500002C073836283518340830895EF92FF929C
:102160000F931F9344FD10C046FD10C0DB01FC011E
:10217000AA0FBB1FEE1FFF1F1094D1F76A0F7B1F22
:102180008E1F9F1F31E003C033E001C034E0660FB3
:10219000771F881F991F3150D1F77B018C01E20E08
:1021A000F11C011D111DA8019701B701CA011F9162
:1021B0000F91FF90EF900895EF92FF920F931F936E
:1021C000CF93DF938C01C8010E948913EC0197FD26
:1021D00009C00E9476130097B1F77E01CE01B801C5
:1021E0000E94CB13CE01CDB7DEB7E6E00C941114FC
:1021F0008F929F92AF92BF92DF92EF92FF920F93D6
:102200001F93DF93CF930F92CDB7DEB74C01D62E3D
:102210005A01122F0E9489138B3219F08D3249F422
:102220001068DA9409F46CC0C4010E94891397FD08
:1022300067C0312F3D7F232F2073F1F48033E1F409
:10224000DA9409F448C0C40139830E9489133981A2
:1022500097FD41C03260883711F0883559F43064F9
:10226000DA94C9F1C40139830E948913398197FF37
:1022700003C031C036FF3061EE24FF248701282FD0
:102280002053283090F034FD09C02A3070F036FF1A
:1022900005C02F7D422F4151463030F0B4013983C3
:1022A0000E94CB13398114C02750C801B701432FB6
:1022B00039830E94AE107B018C0139813260DA943F
:1022C00069F0C40139830E948913398197FFD7CF00
:1022D00031FD04C015C0EE24FF24870137FF08C07C
:1022E00010950095F094E094E11CF11C011D111D66
:1022F000C501B801A701232F0E94A21081E001C0EF
:1023000080E00F90CF91DF911F910F91FF90EF90A0
:10231000DF90BF90AF909F908F900895A1E2B0E0C2
:10232000E4E9F1E10C94ED136C018A0179019E015D
:102330002F5F3F4F80E2F90111928A95E9F7F6018C
:10234000838080E090E0BB24992470E0A1E0B0E0BD
:10235000F70183FCA59083FEA1907F01AA2009F4D8
:102360007FC0FA2DFE3511F4009751F1472F50E050
:102370004817590744F44A2D4D3551F14D3219F49F
:10238000992001F103C0992009F4BA2C4A2D4695F1
:1023900046954695F901E40FF11D4A2D47703D0120
:1023A00002C0660C771C4A95E2F7908096289082CE
:1023B000AB1459F0AB1410F4A394E8CFAA94E6CF71
:1023C00071E004C09924939401C099240196C0CF70
:1023D000992019F08E8180628E83772351F0CE018F
:1023E0008196FE013196208120952193E817F90707
:1023F000D1F7BB24B3944E010894811C911C01C0F9
:10240000BB24C60169A30E94891369A197FD20C05E
:10241000282F269526952695F401E20FF11D20819F
:1024200030E0AC014770507002C0359527954A9551
:10243000E2F720FD04C0B6010E94CB1309C00115CC
:10244000110519F0F80181938F016150C9F602C09E
:10245000BB2031F40115110529F0F801108202C0EA
:10246000EE24FF24C701A196EEE00C9409144F92CC
:102470005F926F927F929F92AF92BF92CF92DF92C4
:10248000EF92FF920F931F93DF93CF930F92CDB7ED
:10249000DEB77C016B013A01FC011782168200E075
:1024A000E9C0812F90E00E947613009721F0C701C8
:1024B0000E94DC10DFC0153241F4F601A3FC359117
:1024C000A3FE31916F01353261F4C7010E94891377
:1024D00097FDDCC0181709F4CDC0B7010E94CB13DB
:1024E000D7C03A3239F4A3FC3591A3FE31916F0184
:1024F00011E001C010E099240FC01260692D70E056
:1025000080E090E040E20E94AE10962EF601A3FC1F
:102510003591A3FE31916F01232F20532A3068F3A8
:1025200011FF03C0992019F4B3C099249A94383646
:1025300019F03C3689F409C0F601A3FC3591A3FEDD
:1025400031916F01383641F418601460F601A3FC34
:102550003591A3FE31916F01332309F499C087E3CC
:1025600091E0632F70E039830E947E1339810097D8
:1025700009F48EC0812F10FD08C0F3014080518006
:1025800042E050E0640E751E02C0442455243E36DD
:1025900051F4F7014681578160E070E0C201212FBC
:1025A0000E94A21067C0333691F481FD02C09924C5
:1025B0009394C7010E94891397FD68C04114510488
:1025C00019F0F20181932F019A9499F751C03B358C
:1025D00059F4C701692DA20196010E948E116C0168
:1025E000009709F045C03FC0C70139830E94DC1045
:1025F000398197FD4BC03F3659F1303728F43436D6
:1026000029F1393639F527C0333719F0353711F547
:102610001DC0C7010E9489135C0197FD11C00E9473
:102620007613009729F0C501B7010E94CB1308C0AB
:102630004114510419F0F201A1922F019A9449F723
:1026400041145104A9F0F201108212C0106203C0BB
:10265000106101C01064C701692DA201212F0E94E1
:10266000F810882329F4F7018381807379F410C06E
:1026700010FF0F5FF701A380F601A3FC1591A3FEE5
:1026800011916F01112309F00CCF02C0002311F04A
:1026900010E002C00FEF1FEFC8010F90CF91DF9144
:1026A0001F910F91FF90EF90DF90CF90BF90AF9070
:1026B0009F907F906F905F904F900895DC01CB01C9
:1026C000FC01F999FECF06C0F2BDE1BDF89A319642
:1026D00000B40D9241505040B8F70895F999FECFDB
:1026E00092BD81BDF89A992780B5089591116EC069
:1026F000803219F089508550D0F70895FC0105907B
:10270000061621F00020D9F7C00108953197CF01B6
:102710000895CF93DF93EC013B8130FF36C036FF45
:1027200009C03F7B3B838E819F8101969F838E836F
:102730002A8129C032FF0FC0E881F9818081992761
:1027400087FD9095009719F430623B831EC0319647
:10275000F983E88311C0EA85FB85CE01099597FFCF
:102760000BC02B813FEF8F3F930711F480E101C035
:1027700080E2822B8B8309C02E813F812F5F3F4FE8
:102780003F832E83282F30E002C02FEF3FEFC90197
:10279000DF91CF910895FB01238120FF13C026FD17
:1027A00011C03FEF8F3F930769F0828320642F7D34
:1027B0002383268137812150304037832683282F79
:1027C00030E002C02FEF3FEFC90108959927882715
:1027D00008952F923F924F925F926F927F928F92C5
:1027E0009F92AF92BF92CF92DF92EF92FF920F93A0
:1027F0001F93CF93DF93CDB7DEB7CA1BDB0B0FB6AA
:10280000F894DEBF0FBECDBF09942A883988488866
:102810005F846E847D848C849B84AA84B984C884FC
:10282000DF80EE80FD800C811B81AA81B981CE0FF3
:10283000D11D0FB6F894DEBF0FBECDBFED010895D8
:04284000F894FFCF3A
:102844006864723A203078002C207365713A200055
:102854002C2064617461203D002D002E0030002086
:102864006465677265657320432C206177616B65CD
:102874003A20006D732C205049523A2000556E6B5B
:102884006E6F776E206E6F64653A2069643A20003B
:102894002C206864723A20306200202830780029A5
:1028A400007370656E7420006D732070726F6365C1
:1028B4007373696E672052463132205061636B65D1
:1028C4007473004D53472049443A203078003A202D
:1028D4007B22736F636B65745F7374617465223AF2
:1028E400205B20007B002267726F7570223A2022E1
:1028F40000222C20226964223A202200222C202249
:102904007374617465223A20220022007D002C2019
:1029140000205D207D3B00737769746368696E678E
:1029240020736F636B65743A200047726F75703A59
:1029340020002C2069643A20002C206F6E6F66669C
:102944003A20003A207B7472616E736D6974746905
:102954006E672049523A002070726F746F3A2000FB
:102964002C206C656E6774683A20002C20636F64B9
:10297400653A2000556E7265636F676E697A6564A7
:1029840020537472696E6720286C656E6774683AA8
:102994002000293A20005B416C697320486F6D6503
:1029A400204175746F6D6174696F6E204E65747724
:1029B4006F726B202D204D6173746572204E6F64AD
:1029C400655D006B65793A002C00FF010000010190
:1029D40000000000000000010101010101010001EB
:1029E40001000101010100000101000000000000DC
:1029F40000010100010101010101010000010101C7
:102A040000000101000000000000000101000101BC
:102A140000010001010101010001000001010000A9
:102A24000000000000010101010100010101010198
:102A3400000100010000010100000000000000018D
:102A44000100010001010001010101000101000078
:102A5400010100000000000000010101010001016A
:102A6400010101010000010100000101000000005A
:102A7400000000010101010000010001010001004A
:102A8400000100000101000000000000000101003D
:102A94000100000101010100000000000000002EFF
:062AA4000E950BAE0B00C5
:00000001FF
